{
  "contractName": "Election",
  "abi": [
    {
      "inputs": [],
      "stateMutability": "nonpayable",
      "type": "constructor"
    },
    {
      "inputs": [
        {
          "internalType": "uint256",
          "name": "",
          "type": "uint256"
        },
        {
          "internalType": "uint256",
          "name": "",
          "type": "uint256"
        }
      ],
      "name": "daftarKandidat",
      "outputs": [
        {
          "internalType": "uint256",
          "name": "id",
          "type": "uint256"
        },
        {
          "internalType": "string",
          "name": "nama",
          "type": "string"
        },
        {
          "internalType": "uint256",
          "name": "jumlahSuara",
          "type": "uint256"
        }
      ],
      "stateMutability": "view",
      "type": "function",
      "constant": true
    },
    {
      "inputs": [
        {
          "internalType": "uint256",
          "name": "",
          "type": "uint256"
        }
      ],
      "name": "daftarSesi",
      "outputs": [
        {
          "internalType": "uint256",
          "name": "id",
          "type": "uint256"
        },
        {
          "internalType": "string",
          "name": "nama",
          "type": "string"
        },
        {
          "internalType": "enum Election.StatusSesi",
          "name": "status",
          "type": "uint8"
        },
        {
          "internalType": "uint256",
          "name": "jumlahKandidat",
          "type": "uint256"
        }
      ],
      "stateMutability": "view",
      "type": "function",
      "constant": true
    },
    {
      "inputs": [],
      "name": "owner",
      "outputs": [
        {
          "internalType": "address",
          "name": "",
          "type": "address"
        }
      ],
      "stateMutability": "view",
      "type": "function",
      "constant": true
    },
    {
      "inputs": [
        {
          "internalType": "uint256",
          "name": "",
          "type": "uint256"
        },
        {
          "internalType": "address",
          "name": "",
          "type": "address"
        }
      ],
      "name": "pemilihTerotorisasi",
      "outputs": [
        {
          "internalType": "bool",
          "name": "",
          "type": "bool"
        }
      ],
      "stateMutability": "view",
      "type": "function",
      "constant": true
    },
    {
      "inputs": [
        {
          "internalType": "uint256",
          "name": "",
          "type": "uint256"
        },
        {
          "internalType": "address",
          "name": "",
          "type": "address"
        }
      ],
      "name": "statusPemilih",
      "outputs": [
        {
          "internalType": "bool",
          "name": "sudahMemilih",
          "type": "bool"
        },
        {
          "internalType": "uint256",
          "name": "memilihKandidatId",
          "type": "uint256"
        }
      ],
      "stateMutability": "view",
      "type": "function",
      "constant": true
    },
    {
      "inputs": [],
      "name": "totalSesi",
      "outputs": [
        {
          "internalType": "uint256",
          "name": "",
          "type": "uint256"
        }
      ],
      "stateMutability": "view",
      "type": "function",
      "constant": true
    },
    {
      "inputs": [
        {
          "internalType": "string",
          "name": "_namaSesi",
          "type": "string"
        }
      ],
      "name": "mulaiSesiBaru",
      "outputs": [],
      "stateMutability": "nonpayable",
      "type": "function"
    },
    {
      "inputs": [
        {
          "internalType": "uint256",
          "name": "_sesiId",
          "type": "uint256"
        },
        {
          "internalType": "string",
          "name": "_nama",
          "type": "string"
        }
      ],
      "name": "tambahKandidat",
      "outputs": [],
      "stateMutability": "nonpayable",
      "type": "function"
    },
    {
      "inputs": [
        {
          "internalType": "uint256",
          "name": "_sesiId",
          "type": "uint256"
        },
        {
          "internalType": "enum Election.StatusSesi",
          "name": "_statusBaru",
          "type": "uint8"
        }
      ],
      "name": "ubahStatusSesi",
      "outputs": [],
      "stateMutability": "nonpayable",
      "type": "function"
    },
    {
      "inputs": [
        {
          "internalType": "uint256",
          "name": "_sesiId",
          "type": "uint256"
        },
        {
          "internalType": "address[]",
          "name": "_daftarAlamat",
          "type": "address[]"
        }
      ],
      "name": "otorisasiPemilih",
      "outputs": [],
      "stateMutability": "nonpayable",
      "type": "function"
    },
    {
      "inputs": [
        {
          "internalType": "uint256",
          "name": "_sesiId",
          "type": "uint256"
        },
        {
          "internalType": "uint256",
          "name": "_kandidatId",
          "type": "uint256"
        }
      ],
      "name": "vote",
      "outputs": [],
      "stateMutability": "nonpayable",
      "type": "function"
    }
  ],
  "bytecode": "0x608060405234801561001057600080fd5b50336000806101000a81548173ffffffffffffffffffffffffffffffffffffffff021916908373ffffffffffffffffffffffffffffffffffffffff160217905550611a2c806100606000396000f3fe608060405234801561001057600080fd5b50600436106100a95760003560e01c80637c4a70d5116100715780637c4a70d5146101675780638da5cb5b14610183578063b384abef146101a1578063c5628f79146101bd578063cbbf63a7146101ed578063de9498a11461020b576100a9565b80630bb2927f146100ae5780631573063e146100ca578063303aea55146100e6578063590a65d1146101195780636e8918c414610135575b600080fd5b6100c860048036038101906100c39190610d22565b61023c565b005b6100e460048036038101906100df9190610dc7565b61030c565b005b61010060048036038101906100fb9190610e27565b610451565b6040516101109493929190610f6a565b60405180910390f35b610133600480360381019061012e91906110e6565b610516565b005b61014f600480360381019061014a9190611142565b6106d9565b60405161015e93929190611182565b60405180910390f35b610181600480360381019061017c91906111c0565b610798565b005b61018b6108ea565b604051610198919061124a565b60405180910390f35b6101bb60048036038101906101b69190611142565b61090e565b005b6101d760048036038101906101d29190611291565b610c40565b6040516101e491906112ec565b60405180910390f35b6101f5610c6f565b6040516102029190611307565b60405180910390f35b61022560048036038101906102209190611291565b610c75565b604051610233929190611322565b60405180910390f35b60008054906101000a900473ffffffffffffffffffffffffffffffffffffffff1673ffffffffffffffffffffffffffffffffffffffff163373ffffffffffffffffffffffffffffffffffffffff16146102ca576040517f08c379a00000000000000000000000000000000000000000000000000000000081526004016102c1906113bd565b60405180910390fd5b806002600084815260200190815260200160002060020160006101000a81548160ff0219169083600381111561030357610302610ef3565b5b02179055505050565b60008054906101000a900473ffffffffffffffffffffffffffffffffffffffff1673ffffffffffffffffffffffffffffffffffffffff163373ffffffffffffffffffffffffffffffffffffffff161461039a576040517f08c379a0000000000000000000000000000000000000000000000000000000008152600401610391906113bd565b60405180910390fd5b60005b8282905081101561044b5760016004600086815260200190815260200160002060008585858181106103d2576103d16113dd565b5b90506020020160208101906103e7919061140c565b73ffffffffffffffffffffffffffffffffffffffff1673ffffffffffffffffffffffffffffffffffffffff16815260200190815260200160002060006101000a81548160ff021916908315150217905550808061044390611468565b91505061039d565b50505050565b600260205280600052604060002060009150905080600001549080600101805461047a906114df565b80601f01602080910402602001604051908101604052809291908181526020018280546104a6906114df565b80156104f35780601f106104c8576101008083540402835291602001916104f3565b820191906000526020600020905b8154815290600101906020018083116104d657829003601f168201915b5050505050908060020160009054906101000a900460ff16908060030154905084565b60008054906101000a900473ffffffffffffffffffffffffffffffffffffffff1673ffffffffffffffffffffffffffffffffffffffff163373ffffffffffffffffffffffffffffffffffffffff16146105a4576040517f08c379a000000000000000000000000000000000000000000000000000000000815260040161059b906113bd565b60405180910390fd5b600060038111156105b8576105b7610ef3565b5b6002600084815260200190815260200160002060020160009054906101000a900460ff1660038111156105ee576105ed610ef3565b5b1461062e576040517f08c379a00000000000000000000000000000000000000000000000000000000081526004016106259061155c565b60405180910390fd5b600060026000848152602001908152602001600020905080600301600081548092919061065a90611468565b91905055506040518060600160405280826003015481526020018381526020016000815250600360008581526020019081526020016000206000836003015481526020019081526020016000206000820151816000015560208201518160010190816106c69190611728565b5060408201518160020155905050505050565b60036020528160005260406000206020528060005260406000206000915091505080600001549080600101805461070f906114df565b80601f016020809104026020016040519081016040528092919081815260200182805461073b906114df565b80156107885780601f1061075d57610100808354040283529160200191610788565b820191906000526020600020905b81548152906001019060200180831161076b57829003601f168201915b5050505050908060020154905083565b60008054906101000a900473ffffffffffffffffffffffffffffffffffffffff1673ffffffffffffffffffffffffffffffffffffffff163373ffffffffffffffffffffffffffffffffffffffff1614610826576040517f08c379a000000000000000000000000000000000000000000000000000000000815260040161081d906113bd565b60405180910390fd5b6001600081548092919061083990611468565b9190505550604051806080016040528060015481526020018281526020016000600381111561086b5761086a610ef3565b5b815260200160008152506002600060015481526020019081526020016000206000820151816000015560208201518160010190816108a99190611728565b5060408201518160020160006101000a81548160ff021916908360038111156108d5576108d4610ef3565b5b02179055506060820151816003015590505050565b60008054906101000a900473ffffffffffffffffffffffffffffffffffffffff1681565b6002600381111561092257610921610ef3565b5b6002600084815260200190815260200160002060020160009054906101000a900460ff16600381111561095857610957610ef3565b5b14610998576040517f08c379a000000000000000000000000000000000000000000000000000000000815260040161098f9061186c565b60405180910390fd5b6004600083815260200190815260200160002060003373ffffffffffffffffffffffffffffffffffffffff1673ffffffffffffffffffffffffffffffffffffffff16815260200190815260200160002060009054906101000a900460ff16610a35576040517f08c379a0000000000000000000000000000000000000000000000000000000008152600401610a2c906118fe565b60405180910390fd5b6005600083815260200190815260200160002060003373ffffffffffffffffffffffffffffffffffffffff1673ffffffffffffffffffffffffffffffffffffffff16815260200190815260200160002060000160009054906101000a900460ff1615610ad6576040517f08c379a0000000000000000000000000000000000000000000000000000000008152600401610acd9061196a565b60405180910390fd5b600081118015610afc575060026000838152602001908152602001600020600301548111155b610b3b576040517f08c379a0000000000000000000000000000000000000000000000000000000008152600401610b32906119d6565b60405180910390fd5b60016005600084815260200190815260200160002060003373ffffffffffffffffffffffffffffffffffffffff1673ffffffffffffffffffffffffffffffffffffffff16815260200190815260200160002060000160006101000a81548160ff021916908315150217905550806005600084815260200190815260200160002060003373ffffffffffffffffffffffffffffffffffffffff1673ffffffffffffffffffffffffffffffffffffffff168152602001908152602001600020600101819055506003600083815260200190815260200160002060008281526020019081526020016000206002016000815480929190610c3790611468565b91905055505050565b60046020528160005260406000206020528060005260406000206000915091509054906101000a900460ff1681565b60015481565b6005602052816000526040600020602052806000526040600020600091509150508060000160009054906101000a900460ff16908060010154905082565b6000604051905090565b600080fd5b600080fd5b6000819050919050565b610cda81610cc7565b8114610ce557600080fd5b50565b600081359050610cf781610cd1565b92915050565b60048110610d0a57600080fd5b50565b600081359050610d1c81610cfd565b92915050565b60008060408385031215610d3957610d38610cbd565b5b6000610d4785828601610ce8565b9250506020610d5885828601610d0d565b9150509250929050565b600080fd5b600080fd5b600080fd5b60008083601f840112610d8757610d86610d62565b5b8235905067ffffffffffffffff811115610da457610da3610d67565b5b602083019150836020820283011115610dc057610dbf610d6c565b5b9250929050565b600080600060408486031215610de057610ddf610cbd565b5b6000610dee86828701610ce8565b935050602084013567ffffffffffffffff811115610e0f57610e0e610cc2565b5b610e1b86828701610d71565b92509250509250925092565b600060208284031215610e3d57610e3c610cbd565b5b6000610e4b84828501610ce8565b91505092915050565b610e5d81610cc7565b82525050565b600081519050919050565b600082825260208201905092915050565b60005b83811015610e9d578082015181840152602081019050610e82565b60008484015250505050565b6000601f19601f8301169050919050565b6000610ec582610e63565b610ecf8185610e6e565b9350610edf818560208601610e7f565b610ee881610ea9565b840191505092915050565b7f4e487b7100000000000000000000000000000000000000000000000000000000600052602160045260246000fd5b60048110610f3357610f32610ef3565b5b50565b6000819050610f4482610f22565b919050565b6000610f5482610f36565b9050919050565b610f6481610f49565b82525050565b6000608082019050610f7f6000830187610e54565b8181036020830152610f918186610eba565b9050610fa06040830185610f5b565b610fad6060830184610e54565b95945050505050565b600080fd5b7f4e487b7100000000000000000000000000000000000000000000000000000000600052604160045260246000fd5b610ff382610ea9565b810181811067ffffffffffffffff8211171561101257611011610fbb565b5b80604052505050565b6000611025610cb3565b90506110318282610fea565b919050565b600067ffffffffffffffff82111561105157611050610fbb565b5b61105a82610ea9565b9050602081019050919050565b82818337600083830152505050565b600061108961108484611036565b61101b565b9050828152602081018484840111156110a5576110a4610fb6565b5b6110b0848285611067565b509392505050565b600082601f8301126110cd576110cc610d62565b5b81356110dd848260208601611076565b91505092915050565b600080604083850312156110fd576110fc610cbd565b5b600061110b85828601610ce8565b925050602083013567ffffffffffffffff81111561112c5761112b610cc2565b5b611138858286016110b8565b9150509250929050565b6000806040838503121561115957611158610cbd565b5b600061116785828601610ce8565b925050602061117885828601610ce8565b9150509250929050565b60006060820190506111976000830186610e54565b81810360208301526111a98185610eba565b90506111b86040830184610e54565b949350505050565b6000602082840312156111d6576111d5610cbd565b5b600082013567ffffffffffffffff8111156111f4576111f3610cc2565b5b611200848285016110b8565b91505092915050565b600073ffffffffffffffffffffffffffffffffffffffff82169050919050565b600061123482611209565b9050919050565b61124481611229565b82525050565b600060208201905061125f600083018461123b565b92915050565b61126e81611229565b811461127957600080fd5b50565b60008135905061128b81611265565b92915050565b600080604083850312156112a8576112a7610cbd565b5b60006112b685828601610ce8565b92505060206112c78582860161127c565b9150509250929050565b60008115159050919050565b6112e6816112d1565b82525050565b600060208201905061130160008301846112dd565b92915050565b600060208201905061131c6000830184610e54565b92915050565b600060408201905061133760008301856112dd565b6113446020830184610e54565b9392505050565b7f48616e79612070656d696c696b206b6f6e7472616b2079616e6720626973612060008201527f6d656e67616b7365730000000000000000000000000000000000000000000000602082015250565b60006113a7602983610e6e565b91506113b28261134b565b604082019050919050565b600060208201905081810360008301526113d68161139a565b9050919050565b7f4e487b7100000000000000000000000000000000000000000000000000000000600052603260045260246000fd5b60006020828403121561142257611421610cbd565b5b60006114308482850161127c565b91505092915050565b7f4e487b7100000000000000000000000000000000000000000000000000000000600052601160045260246000fd5b600061147382610cc7565b91507fffffffffffffffffffffffffffffffffffffffffffffffffffffffffffffffff82036114a5576114a4611439565b5b600182019050919050565b7f4e487b7100000000000000000000000000000000000000000000000000000000600052602260045260246000fd5b600060028204905060018216806114f757607f821691505b60208210810361150a576115096114b0565b5b50919050565b7f536573692073756461682064696d756c61692f73656c65736169000000000000600082015250565b6000611546601a83610e6e565b915061155182611510565b602082019050919050565b6000602082019050818103600083015261157581611539565b9050919050565b60008190508160005260206000209050919050565b60006020601f8301049050919050565b600082821b905092915050565b6000600883026115de7fffffffffffffffffffffffffffffffffffffffffffffffffffffffffffffffff826115a1565b6115e886836115a1565b95508019841693508086168417925050509392505050565b6000819050919050565b600061162561162061161b84610cc7565b611600565b610cc7565b9050919050565b6000819050919050565b61163f8361160a565b61165361164b8261162c565b8484546115ae565b825550505050565b600090565b61166861165b565b611673818484611636565b505050565b5b818110156116975761168c600082611660565b600181019050611679565b5050565b601f8211156116dc576116ad8161157c565b6116b684611591565b810160208510156116c5578190505b6116d96116d185611591565b830182611678565b50505b505050565b600082821c905092915050565b60006116ff600019846008026116e1565b1980831691505092915050565b600061171883836116ee565b9150826002028217905092915050565b61173182610e63565b67ffffffffffffffff81111561174a57611749610fbb565b5b61175482546114df565b61175f82828561169b565b600060209050601f8311600181146117925760008415611780578287015190505b61178a858261170c565b8655506117f2565b601f1984166117a08661157c565b60005b828110156117c8578489015182556001820191506020850194506020810190506117a3565b868310156117e557848901516117e1601f8916826116ee565b8355505b6001600288020188555050505b505050505050565b7f566f74696e672062656c756d20646962756b612061746175207375646168206460008201527f6974757475700000000000000000000000000000000000000000000000000000602082015250565b6000611856602683610e6e565b9150611861826117fa565b604082019050919050565b6000602082019050818103600083015261188581611849565b9050919050565b7f416e646120746964616b207465726f746f72697361736920756e74756b206d6560008201527f6d696c6968206469207365736920696e69000000000000000000000000000000602082015250565b60006118e8603183610e6e565b91506118f38261188c565b604082019050919050565b60006020820190508181036000830152611917816118db565b9050919050565b7f416e6461207375646168206d656d626572696b616e2073756172610000000000600082015250565b6000611954601b83610e6e565b915061195f8261191e565b602082019050919050565b6000602082019050818103600083015261198381611947565b9050919050565b7f4b616e646964617420746964616b2076616c6964000000000000000000000000600082015250565b60006119c0601483610e6e565b91506119cb8261198a565b602082019050919050565b600060208201905081810360008301526119ef816119b3565b905091905056fea26469706673582212206fe4d667d965aa466810848853851ce3d5194b8e4fd150df17468adbe2a2131b64736f6c63430008130033",
  "immutableReferences": {},
  "source": "// SPDX-License-Identifier: MIT\npragma solidity ^0.8.19;\n\ncontract Election {\n    address public owner;\n\n    uint public totalSesi;\n\n    enum StatusSesi { BelumDimulai, Registrasi, VotingBerlangsung, Selesai }\n\n    struct Sesi {\n        uint id;\n        string nama;\n        StatusSesi status;\n        uint jumlahKandidat;\n    }\n\n    struct Kandidat {\n        uint id;\n        string nama;\n        uint jumlahSuara;\n    }\n\n    struct StatusPemilih {\n        bool sudahMemilih;\n        uint memilihKandidatId;\n    }\n\n    mapping(uint => Sesi) public daftarSesi;\n    mapping(uint => mapping(uint => Kandidat)) public daftarKandidat;\n    mapping(uint => mapping(address => bool)) public pemilihTerotorisasi;\n    mapping(uint => mapping(address => StatusPemilih)) public statusPemilih;\n\n    modifier onlyOwner() {\n        require(msg.sender == owner, \"Hanya pemilik kontrak yang bisa mengakses\");\n        _;\n    }\n\n    constructor() {\n        owner = msg.sender;\n    }\n\n    function mulaiSesiBaru(string memory _namaSesi) external onlyOwner {\n        totalSesi++;\n        daftarSesi[totalSesi] = Sesi(totalSesi, _namaSesi, StatusSesi.BelumDimulai, 0);\n    }\n\n    function tambahKandidat(uint _sesiId, string memory _nama) external onlyOwner {\n        require(daftarSesi[_sesiId].status == StatusSesi.BelumDimulai, \"Sesi sudah dimulai/selesai\");\n        Sesi storage sesi = daftarSesi[_sesiId];\n        sesi.jumlahKandidat++;\n        daftarKandidat[_sesiId][sesi.jumlahKandidat] = Kandidat(sesi.jumlahKandidat, _nama, 0);\n    }\n\n    function ubahStatusSesi(uint _sesiId, StatusSesi _statusBaru) external onlyOwner {\n        daftarSesi[_sesiId].status = _statusBaru;\n    }\n\n    function otorisasiPemilih(uint _sesiId, address[] calldata _daftarAlamat) external onlyOwner {\n        for (uint i = 0; i < _daftarAlamat.length; i++) {\n            pemilihTerotorisasi[_sesiId][_daftarAlamat[i]] = true;\n        }\n    }\n\n    function vote(uint _sesiId, uint _kandidatId) external {\n        require(daftarSesi[_sesiId].status == StatusSesi.VotingBerlangsung, \"Voting belum dibuka atau sudah ditutup\");\n        require(pemilihTerotorisasi[_sesiId][msg.sender], \"Anda tidak terotorisasi untuk memilih di sesi ini\");\n        require(!statusPemilih[_sesiId][msg.sender].sudahMemilih, \"Anda sudah memberikan suara\");\n        require(_kandidatId > 0 && _kandidatId <= daftarSesi[_sesiId].jumlahKandidat, \"Kandidat tidak valid\");\n\n        statusPemilih[_sesiId][msg.sender].sudahMemilih = true;\n        statusPemilih[_sesiId][msg.sender].memilihKandidatId = _kandidatId;\n        daftarKandidat[_sesiId][_kandidatId].jumlahSuara++;\n    }\n}",
  "sourcePath": "/srv/evote-apps/contracts/Election.sol",
  "compiler": {
    "name": "solc",
    "version": "0.8.19+commit.7dd6d404.Emscripten.clang"
  },
  "schemaVersion": "3.4.16",
  "updatedAt": "2025-06-28T18:25:35.771Z",
  "networkType": "ethereum",
  "devdoc": {
    "kind": "dev",
    "methods": {},
    "version": 1
  },
  "userdoc": {
    "kind": "user",
    "methods": {},
    "version": 1
  }
}